:10000000A8C00000C4C00000C2C00000C0C0000002
:10001000BEC00000BCC00000BAC00000B8C00000F4
:10002000B6C00000B4C000000C940B2A0C94D12977
:10003000AEC00000ACC00000AAC00000A8C0000014
:10004000A6C0000093C50000A2C00000A0C0000030
:100050009EC000009CC000009AC0000098C0000034
:1000600096C0000094C0000092C0000090C0000044
:100070008EC000008CC000008AC0000088C0000054
:1000800086C0000084C0000082C0000080C0000064
:100090007EC000007CC00000069CFF0901A1010990
:1000A000027508952B1580257F8102090375089537
:1000B0002B150025FF9102C012011001000000085D
:1000C000EB03632001000102DC0109023900020197
:1000D00000C0320904000002080650000705830230
:1000E000400001070504024000010904010001036A
:1000F00000000009211101000122200007058103F1
:100100002000010403090418034400650061006E27
:10011000002000430061006D006500720061000076
:10012000002E03540065006D0070006500720061D0
:1001300000740075007200650020004400610074C6
:100140000061006C006F00670067006500720000CE
:10015000000011241FBECFEFD0E2DEBFCDBF13E001
:10016000A0E0B1E0E6E7FBE600E00BBF02C00790CD
:100170000D92A03AB107D9F716E0A0EAB3E001C0AA
:100180001D92AF37B107E1F7D8D40C94B93538CF09
:10019000CF93DF93E901888169814A810E945112DE
:1001A0008B816C814D810E94D5116E817F81809100
:1001B000E0039091E1038617970741F07093E10304
:1001C0006093E00380E090E00E941535688580919F
:1001D0006F06992787FD9095262F30E082179307A9
:1001E00031F060936F068AE190E00E9403356985E3
:1001F00080913606992787FD9095262F30E082174B
:10020000930731F0609336068BE190E00E9403354E
:100210006A8580912806992787FD9095262F30E0E2
:100220008217930731F0609328068CE190E00E94DA
:10023000033569A57AA580916706909168068617AF
:10024000970741F070936806609367068DE190E030
:100250000E9415350E94A724A5EEB3E0FE013D964D
:1002600088E001900D928150E1F785EE93E062E025
:1002700070E048E050E00E94F43485EE93E00E9484
:100280006D24AFE1B6E0FE01759688E001900D9215
:100290008150E1F78FE196E06AE070E048E050E0DD
:1002A0000E94F43482E090E061E070E00E947C24DF
:1002B0008FE196E00E946D24ADE2B6E0FE017D96EE
:1002C00088E001900D928150E1F78DE296E062E1C5
:1002D00070E048E050E00E94F43483E090E061E098
:1002E00070E00E947C248DE296E00E946D2484E000
:1002F00090E061E070E00E947C2480E091E00E9448
:100300006D24DF91CF910895EF92FF920F931F9389
:10031000DF93CF9300D0CDB7DEB778018901198282
:100320001A82B9016F5F7F4FA9014E5F5F4FC9010C
:100330000E943811B8016C5F7F4FA8014B5F5F4F7F
:10034000C80103960E949A108091E0039091E10306
:10035000F8019783868380916F06808780913606A7
:100360008187809128068287CE010296BE016F5F49
:100370007F4F0E94472880916F069981890FF8016D
:1003800083878A8184878091290690912A06A0918B
:100390002B06B0912C0685A396A3A7A3B0A7D801DE
:1003A0001D96E5EEF3E088E001900D928150E1F7B3
:1003B000D8015596EFE1F6E088E001900D9281506A
:1003C000E1F7D8015D96EDE2F6E088E001900D924C
:1003D0008150E1F78BE290E0F7019183808381E027
:1003E0000F900F90CF91DF911F910F91FF90EF90A1
:1003F00008952BB12F7020622BB90E94E60F9BB19C
:100400009F7090669BB9089580E093E00E945731F9
:1004100087E393E00C94FB2E0C946E2908950F93C0
:100420001F9380E093E00E941B31082F87E393E045
:100430000E94C32E10E090E00823192300FF02C0A1
:1004400090E601C090E98BB18F70982B9BB91F91FA
:100450000F91089585EE93E062E070E048E050E08F
:100460000E94D7348091E5038F3F31F485EE93E00D
:100470006EE071E00E949F328FE196E06AE070E0EA
:1004800048E050E00E94D73480911F068F3F31F43E
:100490008FE196E067E171E00E949F328DE296E085
:1004A00062E170E048E050E00E94D73480912D0670
:1004B0008F3F31F48DE296E060E271E00E949F325E
:1004C0008AE190E00E94E73480936F068BE190E030
:1004D0000E94E734809336068CE190E00E94E73476
:1004E000809328068DE190E00E94EF349093680697
:1004F000809367068F5F9F4F31F482E390E0909383
:100500006806809367060895AF92BF92CF92DF92FC
:10051000EF92FF920F931F93DF93CF93CDB7DEB788
:1005200062970FB6F894DEBF0FBECDBF84B7877F4A
:1005300084BF88E10FB6F894809360001092600049
:100540000FBE80E090E020E80FB6F89420936100A1
:10055000809361000FBE8AB1806F8AB98BB18F70B2
:100560008BB984B1866084B984B1867F84B985B142
:10057000896085B98CE58CBD8DB581608DBD8DB1EF
:1005800083608DB98EB183608EB98091BC00846028
:100590008093BC000E94BC245DDF25982D9A2C9886
:1005A000249A6F9A77983F98379B02C00E94BB2984
:1005B00080E090E00E94EF349093E1038093E003A9
:1005C0008F3F910531F484E190E09093E1038093B3
:1005D000E0030E940E0C3799DFC019821A8289E26B
:1005E00091E00E946D2482E090E061E070E00E9462
:1005F0007C2489E391E00E946D2483E090E061E037
:1006000070E00E947C2400D000D000D0EDB7FEB78F
:1006100031968E010D5F1F4FADB7BEB712961C937A
:100620000E9311978AE491E0938382838091670609
:1006300090916806958384830E94AE328DB79EB7F1
:1006400006960FB6F8949EBF0FBE8DBFC8010E94DC
:100650006D2484E090E061E070E00E947C2400D092
:1006600000D000D0EDB7FEB73196ADB7BEB7129649
:100670001C930E93119783E591E09383828380917D
:10068000E0039091E10396958795958384830E947A
:10069000AE328DB79EB706960FB6F8949EBF0FBECA
:1006A0008DBFC8010E946D2488E99AE328EC30E0F0
:1006B000F9013197F1F70197D9F70E94A72485EE48
:1006C00093E00E946D24CE010296BE016F5F7F4FC2
:1006D0000E94472860916F06772767FD70952981F2
:1006E000332727FD3095620F731F882777FD80958C
:1006F000982F41E651E02BE201E010E0FAE0EF2E06
:10070000F12CE2E0CE2ED12CAA24BB240E944F264D
:100710006A8170E080E090E044E651E02FE23FE043
:10072000E32EF12C0E944F2682E090E061E070E021
:100730000E947C248FE196E00E946D2482E090E08C
:100740006AE070E00E947C2487E691E00E946D24BC
:1007500083E090E061E070E00E947C248DE296E00E
:100760000E946D2483E090E06AE070E00E947C24A7
:1007700087E691E00E946D240E94FC270E943628A3
:1007800081E49FE090938900809388008DE08093BE
:10079000810082E080936F0062960FB6F894DEBF0E
:1007A0000FBECDBFCF91DF911F910F91FF90EF90C2
:1007B000DF90CF90BF90AF9008950F931F930CEAF6
:1007C00013E0C8010E948C22C8010E94DB221F9105
:1007D0000F9108958BB18F70806A8BB9EEDF0E9404
:1007E000A7248FE691E00C946D240F931F93DF9361
:1007F000CF93CDB7DEB72F970FB6F894DEBF0FBEFD
:10080000CDBFCE010196BE016E5F7F4FAE014D5F41
:100810005F4F0E94381129812093E4038DB79EB762
:100820000A970FB6F8949EBF0FBE8DBFEDB7FEB707
:1008300031968E010C5F1F4FADB7BEB712961C9359
:100840000E9311978FE791E093838283248315821F
:100850008A81868317828B81808711860E94AE32BF
:100860008DB79EB70A960FB6F8949EBF0FBE8DBF88
:1008700080E061EF73E00E94DB138CEA93E0B80143
:1008800042E10E94E6224091B6035091B703609185
:10089000B8037091B9038CEA93E00E94271B379943
:1008A00021C08091670690916806892B21F081E034
:1008B000809370061FC0109270067FDF84E090E086
:1008C00061E070E00E947C2480E991E00E946D2448
:1008D00080E29EE428EC30E0F9013197F1F70197CE
:1008E000D9F708C080E090E069E276E041EF53E09C
:1008F0000E94751F2F960FB6F894DEBF0FBECDBFB6
:10090000CF91DF911F910F9108958BB18F7080610E
:100910008BB96BCFAF92BF92CF92DF92EF92FF92E3
:100920000F931F93F89480E090EB0E949C26482F31
:100930008093CE035091CD0320E030E0833011F45A
:1009400021E030E0852F90E028233923232B09F480
:10095000C4C08091DD0381508093DD03E82FF0E077
:10096000EE52FC4F90818091DC03891B8093DC0365
:10097000891709F0D2C010828091D203813409F026
:1009800053C083ED93E00E946532982F882329F0AD
:10099000925380913606890F02C08091DE038093C6
:1009A000A2038091D303883559F482E090E06AE095
:1009B00070E00E947C2485EA91E00E946D2416C0BC
:1009C0006091A203772767FD7095872F972F41EBE2
:1009D00051E02BE202E010E0FAE0EF2EF12CE2E031
:1009E000CE2ED12CAA24BB240E944F268091A30393
:1009F0009091A203882369F080916406981714F4FB
:100A0000909364068091CF03891754F49093CF0399
:100A100007C0909364069093CF0381E08093A30373
:100A200010926606109265068091D203823409F016
:100A300074C083ED93E00E946532982F882329F0DB
:100A4000925380912806890F02C080916E06809390
:100A5000A4038091D303883559F483E090E06AE0E1
:100A600070E00E947C2485EA91E00E946D2416C00B
:100A70006091A403772767FD7095872F972F41EB2F
:100A800051E02BE203E010E03AE0E32EF12CB2E07B
:100A9000CB2ED12CAA24BB240E944F268091A503E3
:100AA0009091A403882369F08091F003981714F4BF
:100AB0009093F00380917106891754F49093710616
:100AC00007C09093F0039093710681E08093A50393
:100AD000109263061092620620C0423031F481E029
:100AE0008093CD031092DC031EC0552391F08091BA
:100AF000DD03863070F4E82FF0E0EE52FC4F4083C7
:100B00008F5F8093DD038091DC03840F8093DC038F
:100B10000AC08091DD03853030F00E943D2810929C
:100B2000CD031092DD0378941F910F91FF90EF9009
:100B3000DF90CF90BF90AF900895E6DC56DE8BB18A
:100B40008F7080618BB97894379905C01198029B9A
:100B5000FBCFE0DEF9CF80E093E00E942B3087E30B
:100B600093E00E94082E0E94F52DEECF1F920F9267
:100B70000FB60F920BB60F9211249F92AF92BF92B5
:100B8000CF92DF92EF92FF920F931F932F933F9399
:100B90004F935F936F937F938F939F93AF93BF9385
:100BA000EF93FF93DF93CF93CDB7DEB7A897DEBF68
:100BB000CDBF9BB01F821886379909C2CE0101961E
:100BC000BE016E5F7F4FAE014D5F5F4F0E943811D7
:100BD000CE010496BE016B5F7F4FAE014A5F5F4F4F
:100BE0000E949A108DB79EB740970FB6F8949EBF9B
:100BF0000FBE8DBFEDB7FEB731968E01055F1F4F5B
:100C0000ADB7BEB712961C930E93119789EB91E086
:100C1000938382838981848315828A818683178264
:100C20008B81808711868C81828713868D81848752
:100C300015868E81868717860E94AE328DB79EB745
:100C400040960FB6F8949EBF0FBE8DBF84E090E033
:100C500061E070E00E947C24C8010E946D2482E063
:100C600090E061E070E00E947C248FE196E00E94B9
:100C70006D2483E090E061E070E00E947C248DE2CE
:100C800096E00E946D2481E090E061E070E00E94B7
:100C90007C2485EE93E00E946D24CE010896BE016F
:100CA000695F7F4F0E94472860916F062F81620F16
:100CB0006F83772767FD7095872F972F41E651E067
:100CC0002BE201E010E0AAE0EA2EF12CF2E0CF2EB8
:100CD000D12CAA24BB240E944F26688570E080E0B6
:100CE00090E044E651E02FE2EFE0EE2EF12C0E947E
:100CF0004F2681E090E064E170E00E947C248F81C7
:100D0000482F552747FD509580916B06282F332794
:100D100027FD3095C90101968417950714F480E0EA
:100D200006C021503040421753072CF481E061E0A7
:100D30000E94072404C089ED91E00E946D248091F7
:100D4000A1039F81882369F08091A003981714F470
:100D50009093A0038091DF03891754F49093DF03ED
:100D600007C09093A0039093DF0381E08093A103D9
:100D70008F8180936B061D992AC10E94BC2485EE49
:100D800093E00E946D2484E090E061E070E00E94B6
:100D90007C242091E0033091E103ADB7BEB71A97F0
:100DA0000FB6F894BEBF0FBEADBFEDB7FEB731961C
:100DB0008E01055F1F4F12961C930E9311978BEDBA
:100DC00091E0938382838091670690916806958372
:100DD0008483C90196958795978386838091EE03D6
:100DE0009091EF03281B390B369527953187208783
:100DF0000E94AE328DB79EB70A960FB6F8949EBF8A
:100E00000FBE8DBFC8010E946D248091A10388236D
:100E100029F16091A003772767FD7095872F972FA1
:100E20004DEE51E02BE201E010E0BAE0EB2EF12CA8
:100E3000A2E0CA2ED12CAA24BB240E944F26609186
:100E4000DF03772767FD7095872F972F41E651E0E5
:100E50002BE2F0E1EF2EF12C0E944F2682E090E091
:100E600061E070E00E947C248FE196E00E946D2496
:100E700083E090E061E070E00E947C248DE296E0E7
:100E80000E946D248091A303882329F16091640658
:100E9000772767FD7095872F972F4DEE51E02BE256
:100EA00002E010E0EAE0EE2EF12C32E0C32ED12C6D
:100EB000AA24BB240E944F266091CF03772767FDA9
:100EC0007095872F972F41E651E02BE2B0E1EB2E92
:100ED000F12C0E944F268091A503882329F160916F
:100EE000F003772767FD7095872F972F4DEE51E020
:100EF0002BE203E010E0AAE0EA2EF12CF2E0CF2E84
:100F0000D12CAA24BB240E944F266091710677271A
:100F100067FD7095872F972F41E651E02BE2E0E1C6
:100F2000EE2EF12C0E944F2610E048ECE42EF12C1E
:100F30001AC088EE93E0F7013197F1F70197D9F7DE
:100F40001F3180F01092A1031092A3031092A50309
:100F500084E090E061E070E00E947C2481EF91E009
:100F60000E946D241F5F1D9BE4CF60916B06772765
:100F700067FD7095872F972F45E052E02BE201E047
:100F800010E03AE0E32EF12CB2E0CB2ED12CAA24D3
:100F9000BB240E944F266091A203772767FD7095BE
:100FA000872F972F45E052E02BE202E010E00E94ED
:100FB0004F266091A403772767FD7095872F972FA1
:100FC00045E052E02BE203E010E00E944F26209122
:100FD000A50330E08091A30390E028233923232B3D
:100FE00009F403C180916C0690916D069C012F5FFE
:100FF0003F4F30936D0620936C068259944009F45C
:101000002C9A2E31310571F41092C9001092C8004B
:101010001092CA001092CD001092CC0053985A98AA
:101020002C98E3C0215B344008F4DFC083E390E0F8
:101030009093CD008093CC0086E08093CA001092FC
:10104000C80088E18093C900539A5A9A88EE93E0C9
:1010500028EC30E0F9013197F1F70197D9F78EE0EC
:1010600092E00E94F03185E292E00E94F0318FE33D
:1010700092E00E94F03182E592E00E94F03187E632
:1010800092E00E94F03180E792E00E94F03182E726
:1010900092E00E94F03183EA92E00E94F03186EB08
:1010A00092E00E94F03189EB92E00E94F03100D092
:1010B00000D000D0EDB7FEB731968E01055F1F4F0F
:1010C000ADB7BEB712961C930E931197A1ECEA2E02
:1010D000A2E0FA2EF382E2828F81992787FD909514
:1010E000958384830E94AE328DB79EB706960FB665
:1010F000F8949EBF0FBE8DBFC8010E94F03185ECF1
:1011000092E00E94F03100D000D000D0EDB7FEB7E1
:101110003196ADB7BEB712961C930E931197F3821A
:10112000E2828885848315820E94AE328DB79EB795
:1011300006960FB6F8949EBF0FBE8DBFC8010E94E1
:10114000F0318EEC92E00E94F03100D000D000D05F
:10115000EDB7FEB73196ADB7BEB712961C930E939E
:101160001197F382E2828091A203992787FD9095DF
:10117000958384830E94AE328DB79EB706960FB6D4
:10118000F8949EBF0FBE8DBFC8010E94F03187ED5D
:1011900092E00E94F03100D000D000D0EDB7FEB751
:1011A0003196ADB7BEB712961C930E931197F3828A
:1011B000E2828091A403992787FD9095958384838B
:1011C0000E94AE328DB79EB706960FB6F8949EBFBA
:1011D0000FBE8DBFC8010E94F03180EE92E00E94E8
:1011E000F03110926D0610926C068091EE03909192
:1011F000EF032091E0033091E10301969093EF0318
:101200008093EE0301978217930708F410C11092A0
:10121000EF031092EE038BB18F7080628BB9379918
:1012200000C180917006282F30E040E050E09981A5
:101230008091E403981711F041E050E02423352316
:10124000232B31F18BB18F7080618BB9B6DA60914D
:1012500067067091680661507040709368066093ED
:1012600067068DE190E00E94153584EC99E028EC4A
:1012700030E0F9013197F1F70197D9F7B6DA84EC4C
:1012800099E028EC30E0F9013197F1F70197D9F7AF
:101290008091A30390E02091700630E08223932395
:1012A0002091A50330E082239323892B09F44FC0BA
:1012B000ADB7BEB752970FB6F894BEBF0FBEADBF65
:1012C000EDB7FEB731968E01055F1F4F12961C9346
:1012D0000E93119783EE92E0938382838C818483B3
:1012E00015828D81868317828E81808711868F81FA
:1012F000992787FD909593878287888584871586AF
:101300008091A203992787FD909597878687809182
:10131000A403992787FD9095918B808B0E94AE3214
:10132000AC0189875A878DB79EB742960FB6F8945D
:101330009EBF0FBE8DBF8CEA93E0B8019E01275F70
:101340003F4F0E9471208CEA93E00E948C228BB167
:101350008F708BB981E090E064E170E00E947C24A2
:101360008F81482F552747FD509580916B06282F78
:10137000332727FD3095C90101968417950714F48A
:1013800080E006C021503040421753072CF481E022
:1013900061E00E94072404C089ED91E00E946D2461
:1013A0008F8180936B0682E090E064E170E00E94A0
:1013B0007C249091A2038091DE03891714F480E0CD
:1013C00003C098172CF481E061E00E94072404C058
:1013D00089ED91E00E946D248091A2038093DE0349
:1013E00083E090E064E170E00E947C249091A4038B
:1013F00080916E06891714F480E003C098172CF4CE
:1014000081E061E00E94072404C089ED91E00E9420
:101410006D248091A40380936E068BB18F708BB97D
:1014200006C08BB190EF99228F70982A9BB8A8962E
:10143000DEBFCDBFCF91DF91FF91EF91BF91AF9113
:101440009F918F917F916F915F914F913F912F91DC
:101450001F910F91FF90EF90DF90CF90BF90AF90D2
:101460009F900F900BBE0F900FBE0F901F9018957E
:10147000DA019330B1F0943028F4913041F0923099
:1014800079F50AC0913211F1923251F524C0E8EB9E
:10149000F0E022E130E028C0EAECF0E029E330E0BF
:1014A00023C0813049F0813018F08230C9F40AC07D
:1014B000E3E0F1E0849103C0E7E0F1E08491282FBC
:1014C00030E012C0E1E2F1E08491F9CFE3EFF0E027
:1014D00029E030E009C0E8E9F0E020E230E004C0B3
:1014E000E0E0F0E020E030E0ED93FC93C9010895E6
:1014F0009C018EB183608EB980E42030380758F4A7
:1015000020FF05C08EB18C7F81608EB908958EB1A9
:101510008C7F82608EB908958EB19EB193609EB922
:101520009EB183709C7F892B8EB90895F5DF87ED7E
:101530008EBD0DB407FEFDCF1EBC0DB407FEFDCF62
:101540000EB407FEF9CFE8CF9C013695279536E01B
:10155000969587953A95E1F78EBD0DB407FEFDCFC0
:10156000822F880F880F880F872B8EBD0DB407FE42
:10157000FDCF6EBD0DB407FEFDCF08956F927F9233
:101580008F929F92AF92BF92CF92DF92EF92FF9293
:101590000F931F93CF93DF935A014901F9E0660F30
:1015A000771F881F991FFA95D1F79B01AC01EAE0DC
:1015B0005695479537952795EA95D1F7E9018B011F
:1015C0001370C90195DF83E58EBD0DB407FEFDCF15
:1015D000CE0160E070E0B8DFA9DF84E88EBD0DB415
:1015E00007FEFDCFC80174E0969587957A95E1F7DF
:1015F000F82E80E090E0B801A7DF650165E0CC0C33
:10160000DD1C6A95E1F7EE2454E8652E56C084018E
:10161000772480E4F816A1F589DFEE2011F483E841
:1016200001C086E88EBD0DB407FEFDCFCE0160E09F
:1016300070E08ADF21968EB18370813009F4E8264C
:10164000CE0156DF90E4C916D10478F46FDFEE20A6
:1016500011F483E501C085E58EBD0DB407FEFDCF15
:10166000CE0160E070E070DF61DF56DF6EBC0DB46C
:1016700007FEFDCF80E090E060E070E065DFFF24D2
:10168000F80190E081918EBD0DB407FEFDCF9F5F04
:101690009031C1F7005F1F4FF394739480E2781686
:1016A00009F0B7CF80E092E0880E991E0894A10857
:1016B000B10880EE9FEFC80ED91EA114B10409F045
:1016C000A6CF34DFEE2011F483E801C086E88EBD9A
:1016D0000DB407FEFDCFCE0160E070E035DF26DF00
:1016E0008EB183608EB9DF91CF911F910F91FF90E2
:1016F000EF90DF90CF90BF90AF909F908F907F90B2
:101700006F900895AF92BF92CF92DF92EF92FF92C7
:101710000F931F93CF93DF936A01790109E0660F5E
:10172000771F881F991F0A95D1F79B01AC011AE01A
:1017300056954795379527951A95D1F78901EB016D
:10174000D370C901D5DE82ED8EBD0DB407FEFDCF8D
:10175000C801BE01F9DE1EBC0DB407FEFDCF1EBCE4
:101760000DB407FEFDCF1EBC0DB407FEFDCF1EBCA1
:101770000DB407FEFDCFB4E0D695C795BA95E1F755
:101780006C2FA2EDAA2E39C0E701BB246034E9F426
:101790000F5F1F4FC801ACDEAEBC0DB407FEFDCF1E
:1017A000C80160E070E0D0DE1EBC0DB407FEFDCFC6
:1017B0001EBC0DB407FEFDCF1EBC0DB407FEFDCF51
:1017C0001EBC0DB407FEFDCF60E0FE0190E01EBC24
:1017D0000DB407FEFDCF8EB581939F5F9031B9F7B1
:1017E00060966F5FB39480E2B81681F680E092E075
:1017F000E80EF91E0894C108D108C114D10421F6DD
:101800008EB183608EB9DF91CF911F910F91FF90C0
:10181000EF90DF90CF90BF90AF9008958EB18C7F06
:1018200082608EB987ED8EBD0DB407FEFDCF1EBC64
:101830000DB407FEFDCF0EB401FE15C06DDE8DE3C5
:101840008EBD0DB407FEFDCF8AE28EBD0DB407FE3E
:10185000FDCF8FE78EBD0DB407FEFDCF8AE98EBDAB
:101860000DB407FEFDCF8EB18C7F81608EB987ED00
:101870008EBD0DB407FEFDCF1EBC0DB407FEFDCF1F
:101880000EB401FE15C048DE8DE38EBD0DB407FE1B
:10189000FDCF8AE28EBD0DB407FEFDCF8FE78EBD72
:1018A0000DB407FEFDCF8AE98EBD0DB407FEFDCF56
:1018B0008EB183608EB908958EB18C7F82608EB9AF
:1018C0008FE98EBD0DB407FEFDCF1EBC0DB407FE23
:1018D000FDCF9EB58EB183608EB99F3111F080E04F
:1018E00008958EB18C7F81608EB98FE98EBD0DB465
:1018F00007FEFDCF1EBC0DB407FEFDCF9EB58EB119
:1019000083608EB980E09F3109F481E00895AF9241
:10191000BF92CF92DF92EF92FF920F931F93DF93CC
:10192000CF930F92CDB7DEB75C017901E9E0440FA8
:10193000551F661F771FEA95D1F7DB01CA013AE010
:10194000B695A795979587953A95D1F78C012FEF86
:10195000C22E23E0D22EC422D522CADD82ED8EBD56
:101960000DB407FEFDCFC801B601EEDD1EBC0DB4FF
:1019700007FEFDCF1EBC0DB407FEFDCF1EBC0DB48F
:1019800007FEFDCF1EBC0DB407FEFDCF0E943C2913
:10199000882309F0C6C094E0D694C7949A95E1F7DD
:1019A0009C2D82EDC82EADC0DD248091E80085FD20
:1019B0000CC08091E8008E778093E80099830E94A4
:1019C0003C299981882309F0ACC09034E9F40F5F79
:1019D0001F4FC8018DDDCEBC0DB407FEFDCFC80181
:1019E00060E070E0B1DD1EBC0DB407FEFDCF1EBC93
:1019F0000DB407FEFDCF1EBC0DB407FEFDCF1EBC0F
:101A00000DB407FEFDCF90E01EBC0DB407FEFDCF68
:101A10008EB58093F1001EBC0DB407FEFDCF8EB5D0
:101A20008093F1001EBC0DB407FEFDCF8EB58093F0
:101A3000F1001EBC0DB407FEFDCF8EB58093F10002
:101A40001EBC0DB407FEFDCF8EB58093F1001EBC09
:101A50000DB407FEFDCF8EB58093F1001EBC0DB412
:101A600007FEFDCF8EB58093F1001EBC0DB407FEBE
:101A7000FDCF8EB58093F1001EBC0DB407FEFDCFE7
:101A80008EB58093F1001EBC0DB407FEFDCF8EB560
:101A90008093F1001EBC0DB407FEFDCF8EB5809380
:101AA000F1001EBC0DB407FEFDCF8EB58093F10092
:101AB0001EBC0DB407FEFDCF8EB58093F1001EBC99
:101AC0000DB407FEFDCF8EB58093F1001EBC0DB4A2
:101AD00007FEFDCF8EB58093F1001EBC0DB407FE4E
:101AE000FDCF8EB58093F100F50186A98823C9F456
:101AF0009F5FD394F0E2DF1609F057CF0894E10816
:101B0000F108E114F10409F04FCF8091E80085FD60
:101B100005C08091E8008E778093E8008EB18360E5
:101B20008EB90F90CF91DF911F910F91FF90EF90A1
:101B3000DF90CF90BF90AF9008958F929F92AF9219
:101B4000BF92CF92DF92EF92FF920F931F93DF939A
:101B5000CF930F92CDB7DEB75C01790109E0440F56
:101B6000551F661F771F0A95D1F7DB01CA011AE0DE
:101B7000B695A795979587951A95D1F78C01BFEFE4
:101B8000CB2EB3E0DB2EC422D522B2DC83E58EBDA2
:101B90000DB407FEFDCFC80160E070E0D5DCC6DC07
:101BA00084E88EBD0DB407FEFDCF80E090E0B60165
:101BB000CBDC0E943C29882309F0EBC0A4E0D6943A
:101BC000C794AA95E1F79C2D4701F5E0880C991C74
:101BD000FA95E1F7DD24BEC0CC248091E80085FDB4
:101BE0000CC08091E8008B778093E80099830E9475
:101BF0003C299981882309F0CCC0903409F039C080
:101C000095DCDD2011F483E801C086E88EBD0DB4BB
:101C100007FEFDCFC80160E070E096DC0F5F1F4F4C
:101C20008EB18370813009F4D826C80161DC20E4CC
:101C30008216910478F47ADCDD2011F483E501C08A
:101C400085E58EBD0DB407FEFDCFC80160E070E0F4
:101C50007BDC6CDCDD2011F484E801C087E88EBDFC
:101C60000DB407FEFDCF80E090E060E070E06CDC3A
:101C700090E08091F1008EBD0DB407FEFDCF809104
:101C8000F1008EBD0DB407FEFDCF8091F1008EBD39
:101C90000DB407FEFDCF8091F1008EBD0DB407FE9F
:101CA000FDCF8091F1008EBD0DB407FEFDCF809178
:101CB000F1008EBD0DB407FEFDCF8091F1008EBD09
:101CC0000DB407FEFDCF8091F1008EBD0DB407FE6F
:101CD000FDCF8091F1008EBD0DB407FEFDCF809148
:101CE000F1008EBD0DB407FEFDCF8091F1008EBDD9
:101CF0000DB407FEFDCF8091F1008EBD0DB407FE3F
:101D0000FDCF8091F1008EBD0DB407FEFDCF809117
:101D1000F1008EBD0DB407FEFDCF8091F1008EBDA8
:101D20000DB407FEFDCF8091F1008EBD0DB407FE0E
:101D3000FDCFF50186A9882361F59F5FC394F0E28A
:101D4000CF1609F04ACF0894E108F10820EE3FEFE2
:101D5000820E931EE114F10409F03ECFE7DBDD2093
:101D600011F483E801C086E88EBD0DB407FEFDCFF7
:101D7000C80160E070E0E8DBD9DB8091E80085FD18
:101D800005C08091E8008B778093E8008EB1836076
:101D90008EB90F90CF91DF911F910F91FF90EF902F
:101DA000DF90CF90BF90AF909F908F900895AF92AB
:101DB000BF92CF92DF92EF92FF920F931F93DF9328
:101DC000CF93CDB7DEB76C01ADB6BEB6FC01058DC5
:101DD000148D828D90E083709070892B19F4838D1F
:101DE000882369F080916A03807F856080936A030D
:101DF00084E2809374031092750380E035C078010B
:101E00000532110518F084E2E82EF12C84E493E009
:101E1000B70140E050E00E94BA2DB8016E197F0969
:101E20008DB79EB7861B970B0FB6F8949EBF0FBE5B
:101E30008DBF019640E050E00E94BA2D8091E800ED
:101E40008E778093E800970140E050E0F6018289A8
:101E50009389A489B589821B930BA40BB50B828B44
:101E6000938BA48BB58B81E00FB6F894BEBE0FBEEA
:101E7000ADBECF91DF911F910F91FF90EF90DF905A
:101E8000CF90BF90AF9008958F929F92BF92CF92C4
:101E9000DF92EF92FF920F931F93DF93CF93CDB713
:101EA000DEB76C018DB69EB6FC01058DB02E0331F8
:101EB00010F092E1B92E10E00B1911098DB79EB701
:101EC000801B910B0FB6F8949EBF0FBE8DBFEDB671
:101ED000FEB60894E11CF11C88E693E06B2D70E0DF
:101EE00040E050E00E94BA2DC701B80140E050E048
:101EF0000E94BA2D8091E8008E778093E800F60169
:101F000082899389A489B5898B199109A109B1099D
:101F1000828B938BA48BB58B81E00FB6F8949EBE19
:101F20000FBE8DBECF91DF911F910F91FF90EF906B
:101F3000DF90CF90BF909F908F9008950F931F9345
:101F4000CF93DF938C01862FF801468D558D648DDC
:101F5000738DC1A1D0A14030F0E85F07F0E06F07BA
:101F6000F0E07F0768F080916A03807F856080934E
:101F70006A0381E2809374031092750380E021C0AC
:101F8000882321F0C8019E01C2DC03C0C8019E0164
:101F9000D4DD9E0140E050E069E0220F331F441F72
:101FA000551F6A95D1F7F80182899389A489B5896B
:101FB000821B930BA40BB50B828B938BA48BB58BDD
:101FC00081E0DF91CF911F910F9108950F931F939F
:101FD000DF93CF93CDB7DEB728970FB6F894DEBF67
:101FE0000FBECDBF8C01FC01818D8E3109F479C00B
:101FF0008F3170F48330F9F0843020F4882309F4B1
:1020000070C075C08231A1F08D3109F070C048C038
:10201000883209F462C0893220F4853209F067C041
:102020000DC08A3209F456C08F3209F060C059C021
:10203000C801BDDE66C0C80127DF63C08FEF9FE720
:10204000A0E0B0E089839A83AB83BC8380E092E018
:10205000A0E0B0E08D839E83AF83B887CE01019668
:1020600064E070E040E050E00E947F2DCE010596D4
:1020700064E070E040E050E00E947F2D8091E80035
:102080008E778093E800F80182899389A489B589C5
:102090000897A109B109828B938BA48BB58B35C0AE
:1020A000F801828D82FD08C080916A03807F85607F
:1020B00080936A0384E222C0FFDB882391F480913D
:1020C0006A03807F846080936A0310927403109285
:1020D000750319C0C80160E002C0C80161E02EDFCD
:1020E00010C0F801128A138A148A158A0EC08091D2
:1020F0006A03807F856080936A0380E28093740323
:10210000E6CF882311F480E00AC080916A03807FC3
:1021100080936A03109274031092750381E02896ED
:102120000FB6F894DEBF0FBECDBFCF91DF911F91E8
:102130000F910895CF92DF92EF92FF920F931F932A
:10214000DF93CF9300D00F92CDB7DEB76C017B0148
:102150008A0180ED6AE00E949231882371F010922A
:10216000BB0084E88093BC008091BC0087FFFCCF5B
:102170008091B90084E98093BC0081ED6AE00E94FF
:102180009231882339F184EC8093BC008091BC00AB
:1021900087FFFCCF2091BB008091B90084EC809335
:1021A000BC008091BC0087FFFCCF9091BB00809168
:1021B000B90084E88093BC008091BC0087FFFCCF0D
:1021C00029839A838091BB008B838091B90084E935
:1021D0008093BC004981242F22952F70822F877015
:1021E00090E09C01220F331F220F331F220F331F59
:1021F000880F991F280F391F4F70420FF801408335
:102200004A81242F22952F70822F877090E09C01A5
:10221000220F331F220F331F220F331F880F991FE6
:10222000280F391F4F70420FF70140834B81242F35
:1022300022952F70822F837090E09C01220F331F14
:10224000220F331F220F331F880F991F280F391FAA
:102250004F70420FF60140830F900F900F90CF9177
:10226000DF911F910F91FF90EF90DF90CF90089535
:10227000CF92DF92EF92FF920F931F93DF93CF9352
:1022800000D00F92CDB7DEB78C017B016A0180EDE3
:102290006AE00E949231882379F084E08093BB0049
:1022A00084E88093BC008091BC0087FFFCCF8091C4
:1022B000B90084E98093BC0081ED6AE00E9492310C
:1022C000882339F184EC8093BC008091BC0087FFA7
:1022D000FCCF2091BB008091B90084EC8093BC00BE
:1022E0008091BC0087FFFCCF9091BB008091B9002A
:1022F00084E88093BC008091BC0087FFFCCF2983D9
:102300009A838091BB008B838091B90084E980938C
:10231000BC004981242F22952F70822F837090E07A
:102320009C01220F331F220F331F220F331F880FF0
:10233000991F280F391F4F70420FF80140834A81BF
:10234000242F22952F70822F817090E09C01220F04
:10235000331F220F331F220F331F880F991F280F9F
:10236000391F4F70420FF70140834B81842F8295B4
:102370008F7090E09C01220F331F220F331F220F1A
:10238000331F880F991F280F391F4F70420FF60116
:1023900040830F900F900F90CF91DF911F910F917D
:1023A000FF90EF90DF90CF900895FF920F931F93CF
:1023B000DF93CF9300D00F92CDB7DEB7F82E062F64
:1023C000142F80ED6AE00E949231882309F460C0E6
:1023D0001092BB0084E88093BC008091BC0087FF12
:1023E000FCCF8091B900812F6AE00E941C32282F17
:1023F00027702295207F812F0E941C329F70292BED
:1024000029832093BB0084E88093BC008091BC00AA
:1024100087FFFCCF8091B900802F6AE00E941C32B8
:10242000382F37703295307F2A812078802F0E9494
:102430001C329F70232B292B2A832093BB0084E816
:102440008093BC008091BC0087FFFCCF8091B900D5
:102450008F2D6AE00E941C32382F33703295307F06
:102460002B81207C8F2D0E941C329F70232B292BC7
:102470002F7B2B832093BB0084E88093BC0080914A
:10248000BC0087FFFCCF8091B90084E98093BC0039
:102490000F900F900F90CF91DF911F910F91FF90B0
:1024A0000895FF920F931F93DF93CF9300D00F9265
:1024B000CDB7DEB7182F062FF42E80ED6AE00E940C
:1024C0009231882309F45FC084E08093BB0084E8E4
:1024D0008093BC008091BC0087FFFCCF8091B90045
:1024E000812F6AE00E941C32382F33703295307F82
:1024F0002981207C812F0E941C329F70232B292B45
:1025000029832093BB0084E88093BC008091BC00A9
:1025100087FFFCCF8091B900802F6AE00E941C32B7
:10252000382F31703295307F2A81207E802F0E9493
:102530001C329F70232B292B2A832093BB0084E815
:102540008093BC008091BC0087FFFCCF8091B900D4
:102550008F2D6AE00E941C32282F2295207F8F2D1C
:102560000E941C329F70292B2B832093BB0084E890
:102570008093BC008091BC0087FFFCCF8091B900A4
:1025800084E98093BC000F900F900F90CF91DF9162
:102590001F910F91FF90089580E0089580E00895C5
:1025A000662311F084E0089580E00895DF93CF93CF
:1025B00000D000D000D0CDB7DEB7CE010196BE016D
:1025C0006E5F7F4FAE014D5F5F4F52DECE010496CE
:1025D000BE016B5F7F4FAE014A5F5F4FABDD29816C
:1025E00030E040E050E0A901332722278A8190E0C3
:1025F000A0E0B0E0F5E1880F991FAA1FBB1FFA9574
:10260000D1F7282B392B4A2B5B2B8C8190E0A0E053
:10261000B0E0EBE0880F991FAA1FBB1FEA95D1F726
:10262000282B392B4A2B5B2B8D8190E0A0E0B0E06A
:1026300075E0880F991FAA1FBB1F7A95D1F7282B29
:10264000392B4A2B5B2B8E81869590E0A0E0B0E081
:10265000282B392B4A2B5B2B8B8190E04496AA27A1
:1026600097FDA095BA2F69E1880F991FAA1FBB1F7C
:102670006A95D1F7282B392B4A2B5B2BB901CA015C
:1026800026960FB6F894DEBF0FBECDBFCF91DF9177
:1026900008950F93FB01CA01B901402F50E09F013B
:1026A0000E94BE0A80E00F9108950F93FB01CA01BA
:1026B000B901402F50E09F0125D880E00F91089587
:1026C0000F931F93CF93DF938C01EB01BA0120E0AE
:1026D00030E00EC0F801E20FF31FDE01A20FB31FBE
:1026E0008D919C9191838083425050402E5F3F4F4B
:1026F0004230510578F7CB018E7FAB01481B590B57
:10270000DE01A80FB91FF801E80FF91F02C08D9173
:102710008193415050408FEF4F3F5807C1F7DF91F1
:10272000CF911F910F910895FC0101C06193415019
:1027300050408FEF4F3F5807C9F70895EF92FF922F
:102740000F931F93CF93DF93EC017A018B018EEFF0
:102750009FEFAFEFBFEFE80EF91E0A1F1B1F8E8918
:102760009F89A88DB98D0297A109B109E816F906CC
:102770000A071B0728F020E030E040E050E012C0DC
:102780002A8130E040E050E0C801B7010E94FD31ED
:102790009B01AC018EA19FA1A8A5B9A5280F391F47
:1027A0004A1F5B1FB901CA01DF91CF911F910F91A1
:1027B000FF90EF900895DB01882311F08BE00895DE
:1027C000E091A803F091A903309709F010821097C7
:1027D00009F01C92B093A903A093A80380E0089588
:1027E000FC01009781F08081882369F086819781C0
:1027F0008617970741F48181D1DE80FD02C080E019
:10280000089583E0089589E008950F93CF93DF93AF
:10281000EC019A01AB01BC01625D7F4F898101E04F
:1028200044DF882311F023E029C0C45DDD4F888197
:102830009981CC52D24085559A4A11F022E01EC0AF
:10284000CC59DF4F88819981AA81BB81C456D04081
:10285000B07086549144A445B04011F420E00EC0FD
:1028600020E0C058DF4F88819981AA81BB81B07078
:1028700086549144A445B04009F021E0822FDF91B5
:10288000CF910F9108952F923F924F925F926F9246
:102890007F928F929F92AF92BF92CF92DF92EF92F0
:1028A000FF920F931F93DF93CF93CDB7DEB72A9795
:1028B0000FB6F894DEBF0FBECDBFDC01142FED9133
:1028C000FC9111978081282F30E0205330402A302E
:1028D000310550F481818A3339F43296ED93FC93BB
:1028E000232B11F08BE051C22091A8033091A90352
:1028F0003A872987DB012D933C93232B11F48CE03D
:1029000044C2E985FA858081882351F0818146DEC1
:1029100080FD06C0112309F435C282FD31C232C2E6
:10292000A985BA851C9211961C9280E035DE80FF45
:1029300002C083E02AC2112311F082FD21C28985E1
:102940009A8540E050E060E070E05FDF813021F088
:1029500022243324210111C0E985FA85E451FE4F78
:102960008481882309F410C22084318442845384F2
:1029700089859A85B201A10148DF833011F481E095
:1029800004C2882309F000C2E985FA8581AD92ADC1
:102990008050924009F0F8C129853A852C5B3F4F61
:1029A0003A872987D9018D919C911197A454B04001
:1029B000BA87A9875C01CC24DD24A114B104C10429
:1029C000D10459F4AE5ABF4FAD90BD90CD90DC907C
:1029D0001397A255B040BA87A987E985FA85A28ED8
:1029E000B38EC48ED58E46AD4383842F8150823002
:1029F00008F0CAC123AD2283222309F4C5C130E007
:102A0000C901019782239323892B09F0BDC1FF9649
:102A100080809180FF97FA87E98791868086C4013C
:102A20008F709070892B09F0AFC1EF5BFF4F8081F1
:102A30009181E154F040FA87E9877C0100E010E0E1
:102A4000E114F1040105110551F4E25BFF4FE08050
:102A5000F18002811381EE54F040FA87E987A9855D
:102A6000BA85DC966D907C90DD976114710409F451
:102A70008BC1242F30E040E050E0C601B5010E9438
:102A8000FD3169837A838B839C83930140E050E01E
:102A90002D833E834F835887A4E096948794AA950C
:102AA000E1F75401CC24DD24A20EB31EC41ED51EB2
:102AB000A60EB71EC81ED91EEA14FB040C051D0580
:102AC00008F462C1EA18FB080C091D09A985BA853A
:102AD00012962C9130E040E050E0C801B7010E940E
:102AE0002832C901DA010097A105B10509F44CC1EA
:102AF000863FEFE09E07E0E0AE07E0E0BE0718F497
:102B0000992493940DC0863FFFEF9F07F0E0AF0735
:102B1000F0E0BF0718F0F3E09F2E02C0E2E09E2E27
:102B200072E0E72EF12C012D112DE80EF91E0A1F7F
:102B30001B1FA985BA855696ED92FD920D931C93A5
:102B40005997A20CB31CC41CD51CE985FA85A6A212
:102B5000B7A2C0A6D1A68D819E81AF81B885820D16
:102B6000931DA41DB51DE985FA85868F978FA0A3B7
:102B7000B1A320853185F3E09F1601F5232B09F0E1
:102B800003C129853A85265A3F4F3A872987F9019B
:102B900080819181A281B381EA55F040FA87E9876B
:102BA00082A393A3A4A3B5A3A801970162E0220F77
:102BB000331F441F551F6A95D1F733C0232B09F4E7
:102BC000E3C029813A814B815C81820F931FA41F4E
:102BD000B51FE985FA8582A393A3A4A3B5A3D80161
:102BE000C701880F991FAA1FBB1FF2E09F1619F497
:102BF0009C01AD0116C09C01AD012E0D3F1D401F73
:102C0000511F569547953795279581E090E0A0E0B4
:102C1000B0E0E822F9220A231B232E0D3F1D401F9E
:102C2000511F21503E4F4F4F5F4F89E056954795BA
:102C3000379527958A95D1F7E985FA85828D938D09
:102C4000A48DB58D82179307A407B50708F49CC01F
:102C50008FEF9FEFAFEFBFEF86879787A08BB18B8A
:102C6000A985BA851A961D921D921D921C921D97D8
:102C7000B3E09B1609F06CC0E985FA851582E25A2B
:102C8000FF4F20813181EE55F040FA87E98740E01F
:102C900050E0220D331D441D551D228B338B448B78
:102CA000558BBF01625D7F4F818101E0FEDC88238F
:102CB00009F04EC0E985FA85E45DFD4F8081918180
:102CC000EC52F240FA87E98785559A4A09F040C0EC
:102CD000E985FA8586A597A5A0A9B1A9825592454F
:102CE000A146B144A9F529853A852E5E3D4F3A8724
:102CF0002987F90180819181A281B381E251F2405B
:102D0000FA87E98782579247A144B14609F5298598
:102D10003A85265E3D4F3A872987F9018081918166
:102D2000A281B381EA51F240FA87E98782879387CB
:102D3000A487B587EA5EFD4F80819181A281B3812E
:102D4000E651F240FA87E98786879787A08BB18B97
:102D5000A985BA859C928091A6039091A7030196BC
:102D60009093A7038093A60317969C938E93169730
:102D7000E985FA8512A613A614A615A6148202C028
:102D80008AE003C080E001C08DE02A960FB6F89477
:102D9000DEBF0FBECDBFCF91DF911F910F91FF908E
:102DA000EF90DF90CF90BF90AF909F908F907F90EB
:102DB0006F905F904F903F902F9008956F927F9209
:102DC0008F929F92AF92BF92CF92DF92EF92FF923B
:102DD0000F931F93CF93DF93EC014A015B01CAA4C9
:102DE000DBA4ECA4FDA4C416D506E606F70609F498
:102DF0004BC08C81882391F1BEE26B2E712C6C0E3E
:102E00007D1E8981B301A701960101E042DC882380
:102E1000C9F51C828A8D9B8DAC8DBD8D2E8D3F8D0D
:102E200048A159A1820F931FA41FB51FC816D90628
:102E3000EA06FB0698F41B810FC08A8D9B8DAC8D32
:102E4000BD8DC80ED91EEA1EFB1E8981B301A701E4
:102E5000960101E01EDC1150123078F781149104C4
:102E6000A104B10489F0BE01625D7F4F8981A50193
:102E7000940101E01ADC882329F48AA69BA6ACA65B
:102E8000BDA603C081E001C080E0DF91CF911F911A
:102E90000F91FF90EF90DF90CF90BF90AF909F90F9
:102EA0008F907F906F9008958F929F92AF92BF9274
:102EB000CF92DF92EF92FF920F931F93CF93DF9306
:102EC000EC016A017B01480159014230510561055D
:102ED000710508F4CDC08E899F89A88DB98D4817DA
:102EE00059076A077B0708F0C3C08881823009F45C
:102EF0006EC0833009F489C0813011F022E0B5C082
:102F00008A0116950795040F151FA801452F55270F
:102F1000469560E070E08E8D9F8DA8A1B9A1480F05
:102F2000591F6A1F7B1FCE0149DF282F882309F014
:102F30009CC0D801B170E1E0EE2EF12CEC20FD2018
:102F4000E114F10451F0FE01EA0FFB1F86A58F701A
:102F5000982D9295907F982B01C0982DAC0FBD1F96
:102F60009E969C930F5F1F4F81E08C83A801452F95
:102F70005527469560E070E08E8D9F8DA8A1B9A180
:102F8000480F591F6A1F7B1FCE0118DF282F882387
:102F900009F06BC0A8015170EF2849F064E0B694C5
:102FA000A794979487946A95D1F7682D0BC0FE017A
:102FB000E40FF51F66A5607FBB27AB2D9A2D892DE9
:102FC0008F70682B4C0F5D1FFA0166A74EC0452F0E
:102FD000562F672F77278E8D9F8DA8A1B9A1480FF7
:102FE000591F6A1F7B1FCE01E9DE282F882309F0B5
:102FF0003CC0CC0CDD1CEE1CFF1CF601F170BE9633
:10300000EC0FFD1F9182808230C007E076956795B6
:10301000579547950A95D1F78E8D9F8DA8A1B9A197
:10302000480F591F6A1F7B1FCE01C8DE282F882337
:10303000E1F412E0CC0CDD1CEE1CFF1C1A95D1F75C
:10304000F601F170BE96EC0FFD1F80819181A28187
:10305000B38180709070A070B07F88299929AA29C7
:10306000BB2980839183A283B38381E08C8301C0D9
:1030700022E0822FDF91CF911F910F91FF90EF906F
:10308000DF90CF90BF90AF909F908F900895BF92A8
:10309000CF92DF92EF92FF920F931F93CF93DF9324
:1030A0006C017A018B01423051056105710508F40C
:1030B000A8C0F60186899789A08DB18D4817590758
:1030C0006A077B0708F09DC08081823009F455C0F3
:1030D000833009F471C0813009F098C0EA01D695B7
:1030E000C795C40FD51FAE01452F5527469560E003
:1030F00070E0F601868D978DA0A1B1A1480F591FF0
:103100006A1F7B1FC6015ADE882309F07FC0FE01BB
:10311000F170EC0DFD1DB6A42196AE01452F55278B
:10312000469560E070E0F601868D978DA0A1B1A173
:10313000480F591F6A1F7B1FC60140DE882309F014
:1031400065C06B2D70E0D170CC0DDD1D9EA580E0BB
:10315000682B792BC70181709070892B39F034E08E
:10316000769567953A95E1F79B0123C09B0140E076
:1031700050E03F70407050704DC0452F562F672F64
:103180007727F601868D978DA0A1B1A1480F591F11
:103190006A1F7B1FC60112DE8823C1F5EE0CFF1CDF
:1031A000001F111FF701F170EC0DFD1D86A597A5FD
:1031B0009C0140E050E02EC087E0769567955795DA
:1031C00047958A95D1F7F601868D978DA0A1B1A17B
:1031D000480F591F6A1F7B1FC601F0DD8823B1F419
:1031E000B2E0EE0CFF1C001F111FBA95D1F7F701DA
:1031F000F170EC0DFD1D26A537A540A951A95F7002
:1032000009C021E030E040E050E004C02FEF3FEF84
:103210004FEF5FEFB901CA01DF91CF911F910F917D
:10322000FF90EF90DF90CF90BF900895EF92FF92C4
:103230000F931F93CF93DF938C01EB01DC01159665
:103240007C936E93149716964D915D916D917C9140
:103250001997413051056105710509F49EC0ED9142
:10326000FC9186899789A08DB18D481759076A0707
:103270007B0708F092C0411551056105710581F584
:103280008081833049F442A153A164A175A1411505
:1032900051056105710521F5F80112861386148622
:1032A00015860190F081E02D80859185C817D9079A
:1032B00008F073C0CE0124E0969587952A95E1F732
:1032C000A0E0B0E022A133A144A155A1820F931F39
:1032D000A41FB51FF80186879787A08BB18B49C0C3
:1032E0008281E82EFF24B4E0EE0CFF1CBA95E1F7D2
:1032F00021C0CDDEAB01BC014F3FFFEF5F07FFEF09
:103300006F07FFEF7F0711F481E048C0423051059D
:103310006105710508F441C0D801ED91FC918689E1
:103320009789A08DB18D481759076A077B07A8F5C3
:10333000CE19DF09F80180819181CE15DF05C8F62D
:10334000D8011A964D935D936D937C931D97F6D992
:103350009E01A4E036952795AA95E1F740E050E05C
:10336000260F371F481F591FF80126873787408BC4
:10337000518BCF70D070F5E0CC0FDD1FFA95E1F7DF
:10338000AE96D8018D919C9111978C0F9D1F5396ED
:103390009C938E93529780E001C082E0DF91CF91A1
:1033A0001F910F91FF90EF9008954F925F926F924F
:1033B0007F928F929F92AF92BF92CF92DF92EF92C5
:1033C000FF920F931F93CF93DF93EC012A013B01F0
:1033D000411551056105710599F48A849B84AC847B
:1033E000BD8481149104A104B10421F18E899F89C7
:1033F000A88DB98D88169906AA06BB06D8F41FC0F9
:1034000046DE9B01AC01623071058105910528F40F
:1034100021E030E040E050E08EC08E899F89A88D89
:10342000B98D281739074A075B0708F484C0530190
:10343000420105C041E0842E912CA12CB12C7501D4
:1034400064010894C11CD11CE11CF11C8E899F8968
:10345000A88DB98DC816D906EA06FB0660F022E0F1
:1034600082169104A104B10408F45CC032E0C32EBA
:10347000D12CE12CF12CCE01B701A60108DE9B0175
:10348000AC016115710581059105A9F02F3F8FEF02
:1034900038078FEF48078FEF580709F44CC02130E9
:1034A00031054105510509F446C0C814D904EA04A0
:1034B000FB0439F637C0BC2CAD2C9E2C8F2CCE01D2
:1034C000A601B7010FEF1FEF2FEF3FE0EDDC8823E0
:1034D00071F5411451046104710441F0CE01B3014E
:1034E000A20186019701E0DC882309F5BA86AB8644
:1034F0009C868D868E859F85A889B9898F3F2FEF01
:1035000092072FEFA2072FEFB20749F00197A10909
:10351000B1098E879F87A88BB98B81E08D83A70126
:10352000960109C020E030E040E050E004C02FEFF9
:103530003FEF4FEF5FEFB901CA01DF91CF911F91CC
:103540000F91FF90EF90DF90CF90BF90AF909F9042
:103550008F907F906F905F904F9008959F92AF9261
:10356000BF92CF92DF92EF92FF920F931F93CF9370
:10357000DF93EC017A018B01423051056105710541
:1035800008F456C08E899F89A88DB98D48175907B0
:103590006A077B0708F43FC04BC0CE01B801A70102
:1035A00076DD5B016C01611571058105910509F4FA
:1035B00041C081E0A816B104C104D104C9F12FEFC4
:1035C000A2162FEFB2062FEFC2062FEFD20611F48C
:1035D00081E031C0CE01B801A70100E010E020E099
:1035E00030E062DC882339F58E859F85A889B9890A
:1035F0008F3F2FEF92072FEFA2072FEFB20741F077
:103600000196A11DB11D8E879F87A88BB98B9D82C6
:103610008601750102C0992493948E899F89A88D93
:10362000B98DE816F9060A071B0708F4B6CF02C0E1
:1036300082E001C080E0DF91CF911F910F91FF9058
:10364000EF90DF90CF90BF90AF909F9008952F9212
:103650003F924F925F926F927F928F929F92AF9222
:10366000BF92CF92DF92EF92FF920F931F93DF935F
:10367000CF9300D000D00F92CDB7DEB79D838C835F
:103680003A014B01DC0112966D917C9113978D915B
:103690009C91A6D88B83882309F07EC1EC81FD81A3
:1036A000848187FD8FC0AC81BD811A96AD90BD909D
:1036B000CD90DC901D97A614B704C804D90410F46B
:1036C00081FF02C064015301EC81FD8126813781B5
:1036D000408551851682178210861186A114B10487
:1036E000C104D10409F424C10190F081E02DFA83D2
:1036F000E9838281682E772488249924F9E0660C76
:10370000771C881C991CFA95D1F7211531054105C4
:103710005105C1F119012A01089421083108410815
:103720005108C601B5016150704080409040A4012D
:1037300093010E94283279018A01C201B101A401DA
:1037400093010E942832E216F30604071507D0F011
:1037500088279927DC0186199709A809B9098221C8
:103760009321A421B521EC81FD8186839783A087D5
:10377000B187A81AB90ACA0ADB0A4289538964893F
:10378000758939C0AC81BD811E964D915D916D9159
:103790007C915197411551056105710521F589818C
:1037A0009A8140E050E060E070E0FFDDAB01BC01D9
:1037B000413051056105710541F4EC81FD81848141
:1037C00080688483F2E0FB83E7C04F3F8FEF5807A8
:1037D0008FEF68078FEF7807A1F1EC81FD814687B5
:1037E0005787608B718BAC81BD8152964D935D93F1
:1037F0006D937C935597411551056105710509F04D
:1038000058C096C0EC81FD8184812081318181FF87
:103810000CC0C901CADDAB01BC01411551056105F0
:10382000710539F4640153014AC0C90130DCAB01B0
:10383000BC014F3FFFEF5F07FFEF6F07FFEF7F0711
:1038400051F4AC81BD8114968C91149780681496C4
:103850008C93B1E05DC0423051056105710508F4FB
:10386000ACCFAC81BD81ED91FC9186899789A08D0B
:10387000B18D481759076A077B0708F09ECFAC81C6
:10388000BD8152964D935D936D937C935597EC81DA
:10389000FD8186819781A085B185860D971DA81D24
:1038A000B91D86839783A087B187A618B708C80873
:1038B000D9086A147B048C049D0408F4A3CFEC811E
:1038C000FD8186819781A085B1858A0D9B1DAC1DE8
:1038D000BD1D86839783A087B187D601C5019170EE
:1038E000A070B0700097A105B10511F180819181A0
:1038F0000E949E13611571058105910559F4AC81F3
:10390000BD8114968C911497806814968C93B2E0C4
:10391000BB8342C0A6019501E9E0569547953795CE
:103920002795EA95D1F7260F371F481F591F04C066
:1039300020E030E040E050E0EC81FD81868197811D
:10394000A085B1859170A070B0700097A105B105F8
:1039500069F086899789A08DB18D281739074A07A4
:103960005B0721F0268B378B408F518FEC81FD81D7
:10397000268137814085518582859385A485B585CB
:1039800082179307A407B50738F422873387448743
:1039900055878481806284838B810F900F900F9074
:1039A0000F900F90CF91DF911F910F91FF90EF90AB
:1039B000DF90CF90BF90AF909F908F907F906F904F
:1039C0005F904F903F902F9008958F929F92AF926B
:1039D000BF92CF92DF92EF92FF920F931F93CF93FC
:1039E000DF93EC018B01AC80BD800894A11CB11C5D
:1039F000A114B10409F4E8C08E859F85A889B9890E
:103A00000097A105B10509F4DFC02FE0822E912CAB
:103A10008A209B208114910409F0C3C00196A11D46
:103A2000B11D8E879F87A88BB98B4A855B856C8576
:103A30007D85E881F981411551056105710539F4EC
:103A400080859185A816B90608F4ABC0BDC08281F7
:103A500090E001979501B4E036952795BA95E1F786
:103A600082239323892B09F09CC0CF0110DB6B01CB
:103A70007C0182E0C816D104E104F10408F4A6C078
:103A80009FEFC9169FEFD9069FEFE9069FEFF90652
:103A900009F49EC0E881F98186899789A08DB18D4E
:103AA000C816D906EA06FB0608F46DC0012B09F416
:103AB0008BC04A855B856C857D85CF0176DC6B018B
:103AC0007C01611571058105910511F487E081C0C4
:103AD000613071058105910509F478C06F3FFFEFF2
:103AE0007F07FFEF8F07FFEF9F0709F471C0888101
:103AF000998140E050E060E070E060D9882309F0EF
:103B000067C0888199818E9660E070E040E052E065
:103B10000E94941308811981C801B701A6010E946F
:103B20009E13F80162A773A784A795A700E011E090
:103B300019C014838881998140E050E060E070E012
:103B40003DD9882309F044C0E881F98182A593A575
:103B5000A4A5B5A50196A11DB11D82A793A7A4A7F1
:103B6000B5A70F5FE881F9818281081710F382A55C
:103B700093A5A4A5B5A5801B9109A109B10982A7A8
:103B800093A7A4A7B5A7CA86DB86EC86FD868881A5
:103B90009981B701A6010E949E136E877F87888B4B
:103BA000998BBD82AC82A5E0880C991CAA95E1F79F
:103BB0008EE290E0880E991E88819981880D991D6A
:103BC0009B8B8A8B80E005C084E003C082E001C04B
:103BD00081E0DF91CF911F910F91FF90EF90DF90E7
:103BE000CF90BF90AF909F908F9008959F92AF928B
:103BF000BF92CF92DF92EF92FF920F931F93CF93DA
:103C0000DF93EC015B01FB0180818F3211F08C3579
:103C100019F40894A11CB11C1E821F8218861986F3
:103C2000F5018081803238F4CE0160E070E0FEDA88
:103C30001B8A1A8A02C1E5E09E2E0C891D89C801E3
:103C400060E270E04BE050E00E94941340E050E0EE
:103C5000EE24FF2478E0C72ED12CA0E0F501EE0D74
:103C6000FF1D20810894E11CF11C213208F466C07C
:103C70002F3209F4EEC02C3509F4EBC02E3219F0C6
:103C80004C155D0584F0F8E0CF16D10409F0D0C0E2
:103C90002E3209F0CDC0AA0FAA0F48E050E06BE029
:103CA000C62ED12CDBCF27FDA360822F81588F3108
:103CB00018F08F558D3108F5F501EE0DFF1D30819F
:103CC000832F80548F3320F080548D3708F0B0C09C
:103CD000C6010197481759070CF0AAC00894E11CC7
:103CE000F11CF801E40FF51F2083CA010196F801C9
:103CF000E80FF91F3083AC011EC0622F70E0EAE7C5
:103D0000F3E001C031968081882329F090E0861786
:103D10009707C1F78DC0822F81548A3110F4A260B9
:103D200006C0822F81568A3110F4A1602052F8011A
:103D3000E40FF51F20834F5F5F4F90CF64E0452B6A
:103D400009F476C0F8018081853E09F49082F8E09C
:103D5000CF16D10411F4AA0FAA0F2A2F30E0C901FF
:103D600083709070019709F460612C70307024307A
:103D7000310509F46860F8016387CE0160E070E006
:103D800055DA482F882361F54E855F8568897989E2
:103D90008881998113D8482F882311F5EA89FB89F6
:103DA0008081882311F444E01BC0838583FD13C008
:103DB0008C899D899C01D9012BE030E02150304055
:103DC0008FEF2F3F380761F090818C91981719F48D
:103DD00031961196F3CFCE0160E070E0F6DDD1CFE1
:103DE000EC89FD899385442331F0842F443011F50B
:103DF00092FF22C022C092FD1DC0EA89FB89838503
:103E000084FF1AC0AE0CBF1C84899589A0E0B0E085
:103E1000DC0199278827228D338D40E050E0822BEA
:103E2000932BA42BB52B8E839F83A887B98705CFAF
:103E300086E003C0842F01C085E0DF91CF911F9100
:103E40000F91FF90EF90DF90CF90BF90AF909F9039
:103E5000089560E074CFFF920F931F93CF93DF9389
:103E6000EC0160E070E0E2D9F82E882359F54E8528
:103E70005F8568897989888199810E94DE16F82E8C
:103E8000882301F5EA89FB89E081E53E11F1EE2303
:103E900001F1CE0161E070E098DDE6CF0A891B896F
:103EA000C80160E070E040E250E00E9494136C8929
:103EB0007D89C8014BE050E00E946013E881F981E0
:103EC00081E084838F2DDF91CF911F910F91FF901F
:103ED00008954E855F8568897989888199810E94D6
:103EE000DE16F82E882371F7D9CF3F924F925F925A
:103EF0006F927F928F929F92AF92BF92CF92DF92FA
:103F0000EF92FF920F931F93DF93CF9300D000D0D7
:103F1000CDB7DEB79A8389837C836B832A01CE0178
:103F20000196BA0140E00E944314682F882309F0EB
:103F3000C1C0D201ED91FC91268537854089518918
:103F4000E688F788008D118DD801C7010297A10975
:103F5000B10982179307A407B50738F0EB81FC81FC
:103F60002083318342835383A5C0308021E0321601
:103F7000D9F5AA24BB24650132E0E32EF12C012DF2
:103F8000112DD2018D919C91B801A70180D86F3F6E
:103F9000BFEF7B07BFEF8B07BFEF9B0711F491E0EB
:103FA00073C0613071058105910511F492E06CC018
:103FB000611571058105910529F40894A11CB11CB6
:103FC000C11CD11C0894E11CF11C011D111DD20162
:103FD000ED91FC9186899789A08DB18DE816F9063F
:103FE0000A071B0770F24FC0668C778C80A091A0E7
:103FF000AA24BB24650120E030E0E0E0F0E02115D8
:104000003105A9F4F20180819181B401A3010E94DC
:10401000DE16982F8823C1F50894611C711C811C41
:10402000911CD201ED91FC91BE9620E032E0B2E00D
:104030003B1669F480819181892B29F40894A11C95
:10404000B11CC11CD11C32962250304011C080815D
:104050009181A281B381BF700097A105B10529F4B8
:104060000894A11CB11CC11CD11C349624503040B2
:104070000894E108F10801091109E114F1040105AE
:10408000110509F0BCCF90E0D201ED91FC91A6861C
:10409000B786C08AD18AB3E03B1629F4D201ED91EC
:1040A000FC9181E08583EB81FC81A082B182C28298
:1040B000D382692F862F0F900F900F900F90CF9182
:1040C000DF911F910F91FF90EF90DF90CF90BF9005
:1040D000AF909F908F907F906F905F904F903F90A8
:1040E00008952F923F924F925F926F927F928F929C
:1040F0009F92AF92BF92CF92DF92EF92FF920F9377
:104100001F93CF93DF93EC01162F072F3A0119016C
:10411000F901118210826A817B81888199810E94D4
:10412000F013882E882309F074C18C8187FD67C045
:1041300081FD03C077E0872E6CC12A853B854C85C5
:104140005D85C301A0E0B0E0820F931FA41FB51FDF
:1041500082179307A407B50710F466247724812FEC
:10416000902F9C0129013DC12E813F8148855985B1
:10417000DA01C9019170A070B0700097A105B10576
:1041800009F0E5C0E881F981DA01C90169E0B69575
:10419000A795979587956A95D1F792809A949822DA
:1041A00009F03DC02115310541055105A1F46E8589
:1041B0007F85888999896115710581059105B9F413
:1041C000CF0140E050E060E070E0EFD86E877F877D
:1041D000888B998B06C04A895B896C897D89CF0160
:1041E000E4D8611571058105910509F4FEC06130BF
:1041F00071058105910531F48C8180688C8332E0F2
:10420000832E07C16F3FFFEF7F07FFEF8F07FFEFA1
:104210009F0709F4AAC06A8B7B8B8C8B9D8BE881EE
:10422000F98122A533A544A555A58E899F89A88D1E
:10423000B98D281739074A075B0751F4CF0140E0D1
:1042400050E060E070E00E94DE16882309F08DC027
:10425000088119814A895B896C897D89C8010E941E
:104260009E13611571058105910531F26B017C0189
:10427000C90CD11CE11CF11C5301AB2CBB24A6942E
:10428000A114B10409F443C0F8012281492D50E082
:10429000C501840F951F30E02817390718F459011C
:1042A000A41AB50AF8018181B201A70196010A2D6D
:1042B0000E944913882309F058C0E881F98122A59A
:1042C00033A544A555A52C193D094E095F09C50123
:1042D000A0E0B0E0281739074A075B0798F499E097
:1042E000220F331F441F551F9A95D1F7B201620F59
:1042F000731FCF018E9640E052E00E946013E88168
:10430000F98114828501102F0027110F50C02E81D2
:104310003F81488559858A859B85AC85BD85281751
:1043200039074A075B0778F0C80140E050E060E0D9
:1043300070E00E94DE168823C1F4E881F981C2A6EC
:10434000D3A6E4A6F5A6CE8ADF8AE88EF98EEE80A3
:10435000FF80088519854E895F89688D798D8881F0
:1043600099810E94DE16882331F08C8180688C83CD
:10437000882483944EC0C701917020E032E0281B4E
:10438000390B83012615370508F489012E813F81F9
:104390003170225D3F4F88819981820F931FB20156
:1043A000A8010E946013E881F98131E03483400E56
:1043B000511EC801A0E0B0E02E813F81488559859B
:1043C000280F391F4A1F5B1F2E833F834887598759
:1043D000F10180819181800F911F91838083601A08
:1043E000710A6114710409F0BFCE2E813F814885A6
:1043F00059858A859B85AC85BD8582179307A4075F
:10440000B50720F42A873B874C875D878C818062C3
:104410008C83882DDF91CF911F910F91FF90EF90AA
:10442000DF90CF90BF90AF909F908F907F906F90D4
:104430005F904F903F902F9008950F931F93CF93CD
:10444000DF93EC0140E050E060E070E00E94DE1697
:10445000882309F05CC08881833009F050C08D81C9
:10446000882309F44CC01AA61BA61CA61DA68E0103
:10447000025D1F4FC80160E070E040E052E00E9422
:104480009413C45DDD4F85E59AEA99838883CC5205
:10449000D24082E592E5A1E6B1E48EA79FA7A8AB42
:1044A000B9ABCE5EDD4F82E792E7A1E4B1E6888347
:1044B0009983AA83BB83C251D2408E859F85A889E8
:1044C000B989CA5EDD4F88839983AA83BB83C651AD
:1044D000D2408A859B85AC85BD85C65EDD4F8883CD
:1044E0009983AA83BB83CA51D2402A893B894C89CC
:1044F0005D898981B80101E00E9449131D8289818B
:1045000060E040E050E00E94D012811181E0DF9134
:10451000CF911F910F9108950F931F93CF93DF9326
:10452000EC016A817B81888199810E94F013982F28
:104530008823D9F58C8185FF38C04A8D5B8D6C8DC1
:104540007D8D888199810E94DE16982F882369F5D8
:104550000E8D1F8DF8018385806283878A859B85F8
:10456000AC85BD85848F958FA68FB78F8E859F85EF
:10457000938F828F8E859F85A889B989CD01AA27BF
:10458000BB27958B848B0E94D612F801668B778BA4
:10459000808F918F8C818F7D8C83E881F98181E080
:1045A00084838881998149DF982F892FDF91CF916A
:1045B0001F910F910895CF93DF93EC01ADDF882316
:1045C00011F419821882DF91CF9108955F926F9252
:1045D0007F928F929F92AF92BF92CF92DF92EF9293
:1045E000FF920F931F93DF93CF93CDB7DEB7A497BE
:1045F0000FB6F894DEBF0FBECDBF3C017CA36BA30A
:10460000DC011D921C925FE1552E54228E01035F46
:104610001F4F4E71CE018396B8010E944314282F7C
:10462000CE0101969AA389A3222329F46BA17CA130
:10463000C801DCDA282FCF8CD8A0222321F4C114A2
:10464000D10409F426E0452D50E0CA018C71907028
:10465000892B09F468C0222371F0243021F4CE01A3
:104660000D96F9DB282FCF8CD8A0222309F0B6C0F5
:10467000B8E05B2A09C052FE02C028E0AFC0F601D4
:104680008385817109F0C1C053FE5BC00E94D612C0
:10469000D6011E966D937D938D939C9351971B9697
:1046A0001C92F601148E158E168E178E84899589AC
:1046B000A0E0B0E08C01FF24EE24828D938DA0E079
:1046C000B0E0E82AF92A0A2B1B2B158A148A138ECC
:1046D000128EED85FE8581E08483E114F1040105ED
:1046E000110579F182A493A4A4A4B5A4CF01B801C3
:1046F000A7010E94AE1A282F882309F06FC0ED850C
:10470000FE850894E108F10801091109E286F386A3
:1047100004871587CF01B501A4010E94DE16282F5A
:10472000882379F05BC0222309F058C0D6011B967C
:104730008C9184FF02C024E051C051FE02C080FD74
:1047400064C0852D8E7111F0B0E25B2A6D857E8587
:10475000FB0122A533A544A555A5D3015A962D9357
:104760003D934D935C935D975F96DC92CE925E97FE
:1047700014965C92F60184899589A0E0B0E0DC0192
:1047800099278827228D338D40E050E0822B932B90
:10479000A42BB52BF30186879787A08BB18BF601ED
:1047A000848D958DA68DB78DF30182879387A4871D
:1047B000B587D30116961D921D921D921C921997D2
:1047C000168A178A108E118E71836083DB0116960C
:1047D0008D919C9117979383828320E0822FA496DA
:1047E0000FB6F894DEBF0FBECDBFCF91DF911F9102
:1047F0000F91FF90EF90DF90CF90BF90AF909F9080
:104800008F907F906F905F90089527E0E7CFE8EC5E
:10481000F0E03197F1F76623F9F0833221F1982F18
:1048200092959F70282F2F70449A88B1807F980F9F
:1048300098B9469A9DE0892F8A95F1F7469888B1F4
:10484000807F280F28B9469A9A95F1F7469888EC08
:1048500090E00197F1F708954498982F92959F70F2
:10486000282F2F70E2CF90E022E0DECFEF92FF9270
:104870001F93CF93DF93C8E8D3E010E480EDE82ED8
:1048800087E0F82E812F60E0C2DFC7010197F1F7C2
:10489000888161E0BCDF898161E0B9DF8A8161E004
:1048A000B6DF8B8161E0B3DF8C8161E0B0DF8D81A9
:1048B00061E0ADDF8E8161E0AADF8F8161E0A7DF7B
:1048C00080E860E0A4DF185F28961835D9F6DF91FC
:1048D000CF911F91FF90EF900895CF93DF93EC015C
:1048E0008881882331F0219661E091DF88818823D7
:1048F000D1F7DF91CF91089583309105A0F06D56E7
:1049000083509C4F0024969587950794969587959C
:104910000794982F802D860F60E079DF80ED97E077
:104920000197F1F70895615881509C4F00249695A6
:1049300087950794969587950794982F802D860FD5
:1049400060E065DF80ED97E00197F1F708950F9340
:104950001F9381E060E05BDF00ED17E0C801019785
:10496000F1F781E090E061E070E0C6DFC8010197F7
:10497000F1F71F910F9108950F931F9387B18F65E2
:1049800087B900ED17E0C8010197F1F788E260E010
:104990003EDFC8010197F1F788E260E038DF80EA86
:1049A0009FE00197F1F78CE060E031DFC8010197EB
:1049B000F1F75CDFC8010197F1F781E060E027DFE4
:1049C000C8010197F1F781E090E061E070E094DFC9
:1049D000C8010197F1F71F910F9108952F923F920F
:1049E0004F925F926F927F928F929F92AF92BF92FF
:1049F000CF92DF92EF92FF920F931F93DF93CF93AB
:104A0000CDB7DEB728970FB6F894DEBF0FBECDBF87
:104A10009E838D834A015B012901CE2C0894411CA1
:104A2000511C9201200F311F3C832B8308944108B5
:104A30005108FC01E20FF31F1082215030403887EB
:104A40002F83411551056105710509F07AC037FDC5
:104A50005DC0012B09F406C14B815C81425050407E
:104A6000DC01A20FB31F7EE260E381C0C501B40187
:104A70002AE030E040E050E00E944A32022FF32E5C
:104A8000E42ED52E182D105D622F732F842F952FB5
:104A900026EF3FEF4FEF5FEF0E94FD31160FD3017E
:104AA0001C93EF81F8853197F887EF8308946108AC
:104AB0007108202F3F2D4E2D5D2DC901DA014C01CB
:104AC0005D01FF231CF1181419041A041B0474F26D
:104AD0002F8138854216530648F2ED81FE818F8181
:104AE0009885E80FF91FC0828F819885019797FDFF
:104AF0000DC0AD81BE81A80FB91F8D819E81019728
:104B000020E22C931197A817B907D9F78B819C81C4
:104B100028960FB6F894DEBF0FBECDBFCF91DF91C0
:104B20001F910F91FF90EF90DF90CF90BF90AF90CB
:104B30009F908F907F906F905F904F903F902F90BD
:104B4000089577FD27C0EF81F885F7FDDFCF012BB2
:104B500081F56D807E806E0E7F1EB5CF6C93CA018D
:104B60002150304041505040119797FDCFCF3887AA
:104B70002F83C90102968415950508F486C0241573
:104B8000350561F78D819E81820F931FFC01708333
:104B9000CA01E6CFB094A09490948094811C911C9B
:104BA000A11CB11C4DE2C42EEF81F885F7FDAECFFC
:104BB000CECF2B803C802EEF3FEF220E331E6F8036
:104BC00078848D819E81860D971D9A83898332C05A
:104BD000C501B4012AE030E040E050E00E944A32D2
:104BE000022FF32EE42ED52E182D105D622F732F79
:104BF000842F952F26EF3FEF4FEF5FEF0E94FD319F
:104C0000160FA981BA811C93B101202F3F2D4E2D83
:104C10005D2DC901DA014C015D01089421083108BC
:104C2000E981FA813197FA83E98308946108710870
:104C300077FD6CCF78866F82181419041A041B0450
:104C40005CF46414750421F6ED81FE81E60DF71D18
:104C5000BEE2B083B101E1CFC30102964816590606
:104C600080F33BCFED81FE812F813885E20FF31F6A
:104C700080E3D901A415B50540F080831197B8876A
:104C8000AF833197BB23B4F741CFED81FE812F81F4
:104C90003885E20FF31FC082C901019728CF2F92F8
:104CA0003F924F925F926F927F928F929F92AF92BC
:104CB000BF92CF92DF92EF92FF920F931F93DF93F9
:104CC000CF93CDB7DEB762970FB6F894DEBF0FBEB5
:104CD000CDBF3B014C015A8B498BE22F28011701B4
:104CE000960185016E010894C11CD11CC601B40156
:104CF000A301EE2E73DEC201B101FEDDC601EDDDC2
:104D000089899A89EADD62960FB6F894DEBF0FBEF4
:104D1000CDBFCF91DF911F910F91FF90EF90DF906A
:104D2000CF90BF90AF909F908F907F906F905F904B
:104D30004F903F902F9008951198AC0197FF5AC162
:104D4000109A80B1282F30E0369527953695279513
:104D500021703070139A8DE08A95F1F71398440F03
:104D6000551FCA0180709078892B09F441C1109AAF
:104D7000220F331F029B02C02F5F3F4F139A8DE01B
:104D80008A95F1F71398440F551FCA0180709078E7
:104D9000892B09F42BC1109A220F331F029B02C0EA
:104DA0002F5F3F4F139A8DE08A95F1F71398440FC8
:104DB000551FCA0180709078892B09F415C1109A8B
:104DC000220F331F029B02C02F5F3F4F139A8DE0CB
:104DD0008A95F1F71398440F551FCA018070907897
:104DE000892B09F4FFC0109A220F331F029B02C0C7
:104DF0002F5F3F4F139A8DE08A95F1F71398440F78
:104E0000551FCA0180709078892B09F4E9C0109A67
:104E1000220F331F029B02C02F5F3F4F139A8DE07A
:104E20008A95F1F71398440F551FCA018070907846
:104E3000892B09F4D3C0109A220F331F029B02C0A2
:104E40002F5F3F4F139A8DE08A95F1F71398440F27
:104E5000551FCA0180709078892B09F4BDC0109A43
:104E6000220F331F029B02C02F5F3F4F139A8DE02A
:104E70008A95F1F71398440F551FCA0180709078F6
:104E8000892B09F4A7C0109A220F331F029B02C07E
:104E90002F5F3F4F139A8DE08A95F1F71398440FD7
:104EA000551FCA0180709078892B09F491C0109A1F
:104EB000220F331F029B02C02F5F3F4F139A8DE0DA
:104EC0008A95F1F71398440F551FCA0180709078A6
:104ED000892B09F47BC0109A220F331F029B02C05A
:104EE0002F5F3F4F139A8DE08A95F1F71398440F87
:104EF000551FCA0180709078892B09F465C0109AFB
:104F0000220F331F029B02C02F5F3F4F139A8DE089
:104F10008A95F1F71398440F551FCA018070907855
:104F2000892B09F44FC0109A220F331F029B02C035
:104F30002F5F3F4F139A8DE08A95F1F71398BA01CE
:104F4000660F771FCB0180709078892B09F438C0E9
:104F5000109AA901440F551F029B02C04F5F5F4F7B
:104F6000139A8DE08A95F1F713989B01220F331F56
:104F7000C90180709078892B09F1109ACA01880FB5
:104F8000991F02990196139A4DE04A95F1F71398EB
:104F9000220F331F232B81F410989C01220F331F03
:104FA000029B02C02F5F3F4F139A8DE08A95F1F765
:104FB0001398119AC9010895109AEFCF1098DECF77
:104FC0001098C7CF1098B0CF10989ACF109884CF70
:104FD00010986ECF109858CF109842CF10982CCFC1
:104FE000109816CF109800CF1098EACE1098D4CE13
:104FF0001098BECE1098A5CE81B18B6181B9149A5C
:1050000020E030E048EC50E0CA010197F1F72F5F53
:105010003F4F87E220313807B9F7119A139887EE8E
:1050200090E88ADE89ED92E887DE8CE796EA84DEF6
:1050300087E496EC81DE81EA94E97EDE89EA92ECEF
:105040007BDE81E89AEC78DE83E894EC75DE80E51F
:1050500098E972DE80E090EE6FDE80E098EC6CDE26
:1050600080E090EC69DE80E090E066CE119888ECFC
:1050700092E862DE83E89AEC5FCE81E89AEC5CDE2F
:1050800080E197E20197F1F783E89AEC55CE6F92B1
:105090007F929F92AF92BF92CF92DF92EF92FF9258
:1050A0000F931F93CF93DF93EC013B0180E56AE000
:1050B0000E949231882319F084E98093BC0080E239
:1050C0009EE40197F1F781E56AE00E94923188231E
:1050D00009F496C084EC8093BC008091BC0087FFEB
:1050E000FCCF9091BB008091B90084EC8093BC0010
:1050F0008091BC0087FFFCCF2091BB008091B9005C
:1051000084EC8093BC008091BC0087FFFCCF609151
:10511000BB008091B90084E88093BC008091BC0002
:1051200087FFFCCF9090BB008091B90084E9809309
:10513000BC0030E040E050E0A62EBB24CC24DD24AF
:10514000AA0CBB1CCC1CDD1CAA0CBB1CCC1CDD1C83
:10515000AA0CBB1CCC1CDD1CAA0CBB1CCC1CDD1C73
:10516000AA0CBB1CCC1CDD1CAA0CBB1CCC1CDD1C63
:105170009F73892F90E0A0E0B0E0BA2FA92F982F5D
:105180008827280F391F4A1F5B1FCA01B90124E66F
:1051900030E040E050E00E94FD317B018C019694AC
:1051A0009694A90CB11CC11CD11CC601B50125EAFD
:1051B00030E040E050E00E94FD3120E030E440E08B
:1051C00050E00E944A32C901DA012EE01695079597
:1051D000F794E7942A95D1F7E8828897A109B10955
:1051E000F3018083DF91CF911F910F91FF90EF909A
:1051F000DF90CF90BF90AF909F907F906F90089579
:1052000020E030E040E050E0AA24BB246501B0CFAC
:105210008093E9008091EB0081608093EB00109215
:10522000ED006093EC004093ED008091EE00881F4C
:105230008827881F08958091770688239CF404C0EE
:10524000809176068823B9F08091E80082FFF8CF3C
:105250008091E8008B778093E8000895809176062E
:10526000882349F08091E80080FFF8CF8091E80022
:105270008E778093E80008954091E4005091E50016
:1052800024E68091EC0080FF05C08091E80080FF5B
:1052900005C022C08091E80082FD1EC08091760684
:1052A000882311F482E00895853011F483E0089595
:1052B0008091EB0085FF02C081E008958091E400B9
:1052C0009091E50084179507E1F2222311F484E020
:1052D00008952150AC01D5CF80E0089555D05CD021
:1052E0008091D800982F9F779093D8008068809302
:1052F000D8008CE089BD89B5826089BD09B400FE03
:10530000FDCF8091D8008F7D8093D8008091D70009
:1053100080688093D70010927606109274061092DF
:105320007306109272068091E0008B7F8093E000FC
:105330008091D80081608093D80080E060E042E0F6
:1053400067DF8091E1008E7F8093E1008091E20031
:1053500081608093E2008091E20088608093E200A7
:105360008091E0008E7F8093E0008091D800806182
:105370008093D8000895E7EDF0E08081816080831C
:1053800081E080937506AACFE8EDF0E080818C7F04
:1053900080831092E20008951092DA001092E100EA
:1053A00008951F920F920FB60F9211241F932F93FF
:1053B0003F934F935F936F937F938F939F93AF939D
:1053C000BF93EF93FF93E9EEF0E010811770108226
:1053D000E0EFF0E08081877F80837894E6D0F894D6
:1053E000A9EEB0E01C92E0EFF0E08081886080835D
:1053F0001C93FF91EF91BF91AF919F918F917F91FE
:105400006F915F914F913F912F911F910F900FBE20
:105410000F901F9018951F920F920FB60F921124A4
:105420002F933F934F935F936F937F938F939F93AC
:10543000AF93BF93EF93FF938091DA0080FF17C083
:105440008091D80080FF13C08091DA008E7F809316
:10545000DA008091D90080FF06C081E08093760653
:105460000E94EA0304C0109276060E94850480918F
:10547000E10080FF1EC08091E20080FF1AC0809191
:10548000E1008E7F8093E1008091E2008E7F809327
:10549000E2008091E20080618093E2008091D80078
:1054A00080628093D80019BC85E0809376060E94C4
:1054B0000C028091E10084FF2EC08091E20084FF05
:1054C0002AC08CE089BD89B5826089BD09B400FE1F
:1054D000FDCF8091D8008F7D8093D8008091E1002E
:1054E0008F7E8093E1008091E2008F7E8093E200C6
:1054F0008091E20081608093E200809174068823AD
:1055000031F48091E30087FD02C081E001C084E0B6
:1055100080937606B9D18091E10083FF27C0809106
:10552000E20083FF23C08091E100877F8093E10048
:1055300082E080937606109274068091E1008E7F5F
:105540008093E1008091E2008E7F8093E200809161
:10555000E20080618093E20080E060E042E058DE9B
:105560008091F00088608093F0008ED18091E100FE
:1055700082FF0AC08091E20082FF06C08091E100B4
:105580008B7F8093E10080D1FF91EF91BF91AF912C
:105590009F918F917F916F915F914F913F912F914B
:1055A0000F900FBE0F901F9018950F931F93DF93CE
:1055B000CF93CDB7DEB7AC970FB6F894DEBF0FBE72
:1055C000CDBFE7E7F6E08091F100819326E0EF3769
:1055D000F207C9F70E9404028091E80083FF3BC1F3
:1055E0008091770630917806353009F487C03630DF
:1055F00040F43130C9F1313070F0333009F02BC153
:1056000033C0383009F4F8C0393009F407C13630F6
:1056100009F021C199C0803821F0823809F01BC1FE
:1056200008C09091720680917306882399F0926069
:1056300011C080917B0687708093E9008091EB0018
:1056400090E025E0969587952A95E1F7982F91703F
:105650001092E9008091E800877F8093E8009093A2
:10566000F1001092F100D3C0882319F0823009F0C4
:10567000F2C090E08F719070009721F0029709F0CE
:10568000EAC00CC080917906813009F0E4C0109224
:105690007306333069F5809373062AC080917906CA
:1056A000882331F520917B06277009F4D4C020931C
:1056B000E9008091EB0080FF1BC0333021F4809122
:1056C000EB00806213C08091EB0080618093EB005F
:1056D00081E090E002C0880F991F2A95E2F780933D
:1056E000EA001092EA008091EB0088608093EB0062
:1056F0001092E9008091E800877F8CC0882309F030
:10570000AAC0109179061F770FB7F8948091E8002E
:10571000877F8093E8008FDD8091E80080FFFCCFD9
:10572000112311F482E001C083E08093760680911A
:10573000E3008078182B1093E3008091E3008068E9
:105740008093E3000FBF87C08058823008F083C089
:105750008091790690917A0623E08C3D920799F525
:105760007FB7F894DE0115966EE040E050E011E25C
:10577000E62FF0E010935700849140FF03C082951C
:105780008F706F5F8F70282F30E08A3018F0C9015A
:10579000C79602C0C901C0968D939D934F5F5F4F1E
:1057A0004431510529F77FBF8AE28B8383E08C83E4
:1057B0008091E800877F8093E800CE0103966AE23B
:1057C00070E063D013C060917B06AE014F5F5F4F06
:1057D0000E94380ABC01009709F43DC08091E8009E
:1057E000877F8093E80089819A81ADD08091E8001D
:1057F0008B778093E8002FC0803869F58091E800AE
:10580000877F8093E800809174068093F1008091F7
:10581000E8008E778093E8000EDD1DC08823D9F460
:10582000909179069230B8F48091E800877F809358
:10583000E80090937406FFDC80917406882331F4AD
:105840008091E30087FD02C081E001C084E0809385
:1058500076060E940F028091E80083FF0AC08091C3
:10586000EB0080628093EB008091E800877F80935B
:10587000E800AC960FB6F894DEBF0FBECDBFCF9157
:10588000DF911F910F91089508959C0140917D062D
:1058900050917E064617570718F4F90190E03DC075
:1058A0006115710511F0AB01F8CF8091E8008E779A
:1058B0008093E80040E050E0F0CF809176068823A6
:1058C000F1F18530F1F18091E80083FF02C081E0C1
:1058D00008958091E80082FD2CC08091E80080FF4F
:1058E0001CC02091F2003091F30007C08191809399
:1058F000F100415050402F5F3F4F4115510519F0C5
:105900002830310598F390E02830310509F491E012
:105910008091E8008E778093E8004115510569F683
:10592000992359F606C080917606882341F0853088
:1059300041F08091E80082FFF6CF80E0089582E098
:10594000089583E008959C0140917D0650917E0664
:105950004617570710F460E040C06115710511F05B
:10596000AB01F9CF8091E8008E778093E80040E0AA
:1059700050E0F1CF80917606882309F440C085304D
:1059800009F43FC08091E80083FF02C081E00895E0
:105990008091E80082FD2DC08091E80080FF1DC04D
:1059A0008091F2009091F30009C0F9012F5F3F4F01
:1059B000E491E093F10041505040019641155105AA
:1059C00019F08830910588F360E0089709F461E0E8
:1059D0008091E8008E778093E8004115510551F6DB
:1059E000662341F606C080917606882341F0853013
:1059F00041F08091E80082FFF6CF80E0089582E0D8
:105A0000089583E008959C016115710529F4809142
:105A1000E8008B778093E800F90122C08091760638
:105A2000882371F1853071F18091E80083FF02C015
:105A300081E008958091E80082FFF0CF06C0809158
:105A4000F10081936150704031F08091F2009091AB
:105A5000F300892BA1F78091E8008B778093E80011
:105A600061157105D9F606C080917606882341F04C
:105A7000853041F08091E80080FFF6CF80E0089506
:105A800082E0089583E00895DF92EF92FF920F93F2
:105A90001F93CF93DF93182F092FEB017A01ECDBD3
:105AA000D82E882319F5812F902F9C0189011CC0C5
:105AB0008091E80085FD12C08091E8008B7780938B
:105AC000E800E114F10431F0F7010995813011F497
:105AD00085E00DC0D1DB882339F009C08091F10049
